{
  "_format": "hh-sol-artifact-1",
  "contractName": "Constants",
  "sourceName": "contracts/v2/accounts/Implementation_m1.sol",
  "abi": [
    {
      "inputs": [
        {
          "internalType": "address",
          "name": "_instaIndex",
          "type": "address"
        },
        {
          "internalType": "address",
          "name": "_connectors",
          "type": "address"
        }
      ],
      "stateMutability": "nonpayable",
      "type": "constructor"
    },
    {
      "inputs": [],
      "name": "connectorsM1",
      "outputs": [
        {
          "internalType": "address",
          "name": "",
          "type": "address"
        }
      ],
      "stateMutability": "view",
      "type": "function"
    }
  ],
  "bytecode": "0x60c060405234801561001057600080fd5b50604051610259380380610259833981810160405281019061003291906100bc565b8073ffffffffffffffffffffffffffffffffffffffff1660a08173ffffffffffffffffffffffffffffffffffffffff1660601b815250508173ffffffffffffffffffffffffffffffffffffffff1660808173ffffffffffffffffffffffffffffffffffffffff1660601b815250505050610141565b6000815190506100b68161012a565b92915050565b600080604083850312156100cf57600080fd5b60006100dd858286016100a7565b92505060206100ee858286016100a7565b9150509250929050565b60006101038261010a565b9050919050565b600073ffffffffffffffffffffffffffffffffffffffff82169050919050565b610133816100f8565b811461013e57600080fd5b50565b60805160601c60a05160601c60f761016260003980604952505060f76000f3fe6080604052348015600f57600080fd5b506004361060285760003560e01c80636254a08f14602d575b600080fd5b60336047565b604051603e91906078565b60405180910390f35b7f000000000000000000000000000000000000000000000000000000000000000081565b6072816091565b82525050565b6000602082019050608b6000830184606b565b92915050565b6000609a8260a1565b9050919050565b600073ffffffffffffffffffffffffffffffffffffffff8216905091905056fea2646970667358221220699279b70fa8da43ab7a9539e71580df4db8693687d48ed183b46ebe8dd7ae4064736f6c63430007000033",
  "linkReferences": {},
  "deployedLinkReferences": {}
}